:020000040000FA
:0400000007EF00F016
:100008005F82D8ED0DF0A6EF0BF01950800B266E2D
:10001800195019242D6E18AE14EF00F016EF00F0E9
:1000280017EF00F02D802D50D8B41DEF00F01FEF12
:1000380000F034EF00F02D28D8A425EF00F027EFCA
:1000480000F02FEF00F0000E166E000E176E000E77
:10005800186E000E196E188E000E196E3CEF00F027
:10006800000E166E000E176E000E186E000E196E3A
:100078001D50800B261A1D501D242E6E1CAE47EFF6
:1000880000F049EF00F04AEF00F02E802E50D8B46F
:1000980050EF00F052EF00F067EF00F02E28D8A4E0
:1000A80058EF00F05AEF00F062EF00F0000E1A6E01
:1000B800000E1B6E000E1C6E000E1D6E1C8E000EB8
:1000C8001D6E6FEF00F0000E1A6E000E1B6E000E14
:1000D8001C6E000E1D6E1A501B101C101D10D8A48B
:1000E80078EF00F07AEF00F092EF00F0000E166E55
:1000F800000E176E000E186E000E196E800E181284
:100108007F0E19122650191216C016F017C017F0D4
:1001180018C018F019C019F0D5EF01F02D50D8A467
:1001280098EF00F09AEF00F0A4EF00F0000E166EC2
:10013800000E176E000E186E000E196ED5EF01F046
:100148002E502DC01EF01F6A1E5E000E1F5A7F0E15
:100158001E24276E000E1F20286E16C022F017C01E
:1001680023F018C024F019C025F0000E166E000EFA
:10017800176E000E186E000E196E000E296E000E16
:100188002A6E000E2B6E000E2C6E000E2E6E05EFE2
:1001980001F02E50D8B4D3EF00F0D5EF00F0ECEF1B
:1001A80000F0D8902236233624362536D8901636D5
:1001B8001736183619362CAEE4EF00F0E6EF00F0EB
:1001C800E7EF00F01680D89029362A362B362C36E1
:1001D8001A50225C1B5023581C5024581D50255877
:1001E800D8A0F9EF00F0FBEF00F004EF01F02C8C41
:1001F8001A50225E1B50235A1C50245A1D50255A4F
:100208002E2A190E2E640BEF01F00DEF01F0CDEF41
:1002180000F02250231024102510D8B416EF01F056
:1002280018EF01F030EF01F0298030EF01F0D8909D
:1002380016361736183619362CAE25EF01F027EF8B
:1002480001F028EF01F01680D89029362A362B368F
:100258002C362706D8A0280618AE35EF01F037EF60
:1002680001F01BEF01F0000E2E6E2CAE3EEF01F0F8
:1002780040EF01F064EF01F0FF0E29141E6EFF0E2F
:100288002A141F6EFF0E2B14206E7F0E2C14216E65
:100298001E501F1020102110D8B455EF01F057EF51
:1002A80001F05BEF01F0010E2E6E64EF01F016A075
:1002B80060EF01F062EF01F064EF01F057EF01F039
:1002C8002E50D8B46AEF01F06CEF01F090EF01F016
:1002D800010E1626000E17221822192219A077EFF0
:1002E80001F079EF01F090EF01F016C01EF017C091
:1002F8001FF018C020F019C021F02134213220321B
:100308001F321E321EC016F01FC017F020C018F092
:1003180021C019F0274A282A28BE9BEF01F028504F
:1003280008E12728D8A09BEF01F09DEF01F0A8EF86
:1003380001F0000E286E2768000E166E000E176E6C
:10034800000E186E000E196E28BEB5EF01F0285089
:1003580006E12704D8B0B3EF01F0B5EF01F0C3EF21
:1003680001F0000E286E000E276E000E166E000EAD
:10037800176E000E186E000E196E000E266E27C03E
:100388002DF02DA0CAEF01F0CCEF01F0CFEF01F076
:10039800188ED0EF01F0189ED8902D30196E86EF88
:1003A80000F01200000E016E010E19EC0EF0000EA6
:1003B800216E020E1D6E000E196E000E186E000ED4
:1003C8001B6E000E1A6E000E206E300E016E20504D
:1003D800320F51EC0EF02050AD0FD96EDA6A205072
:1003E800320F14EC0FF0DF6E202A030E2064FFEFAB
:1003F80001F001EF02F0E9EF01F0184A192A890E1D
:10040800181807E1130E1918D8A40DEF02F00FEF12
:1004180002F018EF02F0110E5E6E000E016E010E72
:1004280019EC0EF071EF03F0010E2BEC0CF01C6EC2
:10043800040E216022EF02F024EF02F086EF02F0B2
:10044800820E036E2F0E046E800E056EA0EC0CF06B
:1004580021500AEC0BF00B0E1C18D8A436EF02F052
:1004680038EF02F04BEF02F02150A80FD96EDA6A8C
:10047800310EDF6E2150C60F0D6E2A0EE9EC0EF01C
:10048800212A000E196E000E186E62EF02F00C0E93
:100498001C18D8A452EF02F054EF02F062EF02F0F9
:1004A8002150A80FD96EDA6A300EDF6E2150C60FC0
:1004B8000D6E2A0EE9EC0EF044EF02F0040E21183E
:1004C800D8A469EF02F06BEF02F001EF02F0710EB1
:1004D800156EB00E146E1406D8A01506142806E181
:1004E8001528D8A47AEF02F07CEF02F06FEF02F043
:1004F800000E016E010E19EC0EF0000E0001AC6F3B
:1005080001EF02F0AD0E016EA80E026E08EC0DF0C0
:1005180001500210D8A493EF02F095EF02F0BCEF5F
:1005280002F0930E036E2F0E046E800E056EA0EC83
:100538000CF05F0E036E2F0E046EC00E056EA0EC5D
:100548000CF01A4A1B2AE90E1A1807E1030E1B18A9
:10055800D8A4B1EF02F0B3EF02F001EF02F0000E01
:10056800016E010E19EC0EF0130E5E6E71EF03F0C2
:100578001D50D8B4C2EF02F0C4EF02F0F6EF02F05B
:10058800710E036E2F0E046E800E056EA0EC0CF03B
:10059800C00E0D6E1D50300FE9EC0EF0C50E036E47
:1005A8002F0E046EC20E056EA0EC0CF01A4A1B2A20
:1005B800E90E1A1807E1030E1B18D8A4E6EF02F09B
:1005C800E8EF02F001EF02F0000E1B6E000E1A6E4B
:1005D8001D06000E216E000E016E010E19EC0EF0C4
:1005E80001EF02F0B50E036E2F0E046E800E056E3D
:1005F800A0EC0CF0EA0E036E2F0E046EC40E056E0E
:10060800A0EC0CF0000E1F6E060E1E6E59EF03F0E4
:10061800070E176ED00E166E4CEF03F0C00E0D6E5F
:100628001EC001F01FC002F0000E046E640E036EBF
:1006380066EC0CF00150300FE9EC0EF0C10E0D6EB7
:10064800000E046E0A0E036E1EC001F01FC002F0F9
:1006580066EC0CF001C008F002C009F0000E0B6E49
:100668000A0E0A6ED6EC0CF00850300FE9EC0EF0CA
:10067800C20E0D6E1EC008F01FC009F0000E0B6EF2
:100688000A0E0A6ED6EC0CF00850300FE9EC0EF0AA
:100698001606D8A01706162806E11728D8A457EF7B
:1006A80003F059EF03F012EF03F01E06D8A01F065F
:1006B8001E2806E11F28D8A464EF03F066EF03F0B4
:1006C8000CEF03F0020E1D6E000E216E000E016E7F
:1006D800010E19EC0EF001EF02F01200000E2BECE7
:1006E8000CF00F6E5C50D8B47CEF03F07EEF03F093
:1006F80085EF03F0000E016E010E19EC0EF0000EEE
:100708005C6E5750D8B48BEF03F08DEF03F099EF80
:1007180003F0800E0D6E200EE9EC0EF0C00E0D6E8B
:100728002A0EE9EC0EF0A3EF03F0C00E0D6E200EBA
:10073800E9EC0EF0800E0D6E2A0EE9EC0EF0565024
:10074800110D000EF324036E010EF420046E810EC9
:10075800056EA0EC0CF05650110D110EF324036E2B
:10076800010EF420046EC10E056EA0EC0CF00F28EB
:10077800D8B4C1EF03F0C3EF03F004EF04F00FC0E7
:1007880046F0476A484A492AF50E485C010E49581E
:10079800D8A0D1EF03F0D3EF03F0A5EF04F0000EDB
:1007A800496E000E486E0C0E46184710D8A4DFEFAD
:1007B80003F0E1EF03F0EBEF03F0000E016E010E22
:1007C80019EC0EF0575056245E6E010E5C6E0B0E3F
:1007D80046184710D8A4F3EF03F0F5EF03F0A5EFA0
:1007E80004F0000E016E010E19EC0EF0000E566EAC
:1007F800000E576E110E5E6E010E5C6EA5EF04F0D2
:1008080048504910D8B40BEF04F00DEF04F071EF25
:1008180004F0F40E485C010E4958D8B016EF04F005
:1008280018EF04F071EF04F0000E496E000E486EE8
:100838000B0E46184710D8A424EF04F026EF04F056
:1008480045EF04F05750D8A42CEF04F02EEF04F035
:1008580037EF04F05650D8B434EF04F036EF04F014
:1008680037EF04F056065704D8A43DEF04F03FEFE5
:1008780004F040EF04F05706000E016E010E19EC6B
:100888000EF00C0E46184710D8A44DEF04F04FEFA9
:1008980004F0A5EF04F05704D8A455EF04F057EF7F
:1008A80004F061EF04F0030E5618D8B45EEF04F0BC
:1008B80060EF04F061EF04F0562A5750D8A467EFB0
:1008C80004F069EF04F06AEF04F0572A000E016E95
:1008D800010E19EC0EF0A5EF04F0F50E485C010EC0
:1008E8004958D8A07AEF04F07CEF04F0A5EF04F0A3
:1008F800000E496E000E486E0C0E46184710D8A41C
:1009080088EF04F08AEF04F094EF04F0000E016E13
:10091800010E19EC0EF0575056245E6E010E5C6EF7
:100928000B0E46184710D8A49CEF04F09EEF04F075
:10093800A5EF04F0000E016E010E19EC0EF0FAEFAF
:1009480003F012004B0E026E2F0E036E37EC0DF003
:100958005850D8A4B2EF04F0B4EF04F0B8EF04F0A4
:100968004C04526EBAEF04F0090E526E5850D8B4C7
:10097800C0EF04F0C2EF04F0C6EF04F04CC051F031
:10098800C8EF04F0000E516E000E206E000E1F6EB0
:10099800A8EF05F020EE60F010EE0DF0110EDBCFA1
:1009A800E3FFE806FCE251501F24216E000E2020D0
:1009B800226E1F50300F0D6E1FC002F020C003F0D2
:1009C800000E056E0A0E046EB2EC0AF002505124B5
:1009D800516E2150050DF35014EC0FF00A6E0A50B9
:1009E800026E036A000E056E0A0E046E50EC0AF0E1
:1009F8000250300F106E2150050DF35014EC0FF01B
:100A08000A6E0A50026E036A000E056E0A0E046E24
:100A1800B2EC0AF00250300F116E2150050DF32888
:100A280014EC0FF00A6E0A50026E036A000E056E8F
:100A38000A0E046E50EC0AF00250300F136E21506B
:100A4800050DF32814EC0FF00A6E0A50026E036AC3
:100A5800000E056E0A0E046EB2EC0AF00250300F5A
:100A6800146E2150050DF350020F14EC0FF00A6EAE
:100A78000A50026E036A000E056E0A0E046E50ECF0
:100A88000AF00250300F166E2150050DF350020F78
:100A980014EC0FF00A6E0A50026E036A000E056E1F
:100AA8000A0E046E50EC0AF00250300F176E2150F7
:100AB800050DF350030F14EC0FF0030DF350830FE3
:100AC800D96EDA6ADF50196E2150050DF350030F05
:100AD80014EC0FF0030DF350840FD96EDA6ADF506F
:100AE8001A6E2150050DF350040F14EC0FF00A6E26
:100AF8000A50026E036A000E056E0A0E046E50EC70
:100B08000AF00250300F1C6E2150050DF350040FEF
:100B180014EC0FF00A6E0A50026E036A000E056E9E
:100B28000A0E046EB2EC0AF00250300F1D6E0D0E64
:100B3800026E036A37EC0DF05C0E026E2F0E036E28
:100B480037EC0DF01F4A202A52500A6E0B6A0A50E1
:100B58001F5C2050800A0C6E0B50800A0C58D8A0DD
:100B6800B8EF05F0BAEF05F0CEEF04F01200106E02
:100B78001050D8B4C2EF05F0C4EF05F0E6EF05F069
:100B88000BBECBEF05F0C9EF05F0E6EF05F008C0A6
:100B98000CF009C00DF00AC00EF00BC00FF00C1ECF
:100BA8000D1E0E1E0F1E0C2A000E0D220E220F22E5
:100BB8000CC012F00DC013F00EC014F00FC015F0E9
:100BC800EEEF05F008C012F009C013F00AC014F0E7
:100BD8000BC015F0085009100A100B10D8A4F7EF35
:100BE80005F0F9EF05F003EF06F0000E086E000EB1
:100BF800096E000E0A6E000E0B6E94EF06F0960E4C
:100C0800116E0DEF06F0112AD890153214321332F6
:100C18001232000E12140C6E000E13140D6E000E1C
:100C280014140E6EFE0E15140F6E0C500D100E10CF
:100C38000F10D8A422EF06F024EF06F007EF06F015
:100C480032EF06F0112A010E1226000E132214228A
:100C58001522D8901532143213321232000E1214A3
:100C68000C6E000E13140D6E000E14140E6EFF0E93
:100C780015140F6E0C500D100E100F10D8A447EF5E
:100C880006F049EF06F026EF06F051EF06F01106E0
:100C9800D890123613361436153614BE56EF06F0B1
:100CA80058EF06F060EF06F0020E11605EEF06F0F6
:100CB80060EF06F04BEF06F011B065EF06F067EF56
:100CC80006F068EF06F0149ED890113211C00CF0AF
:100CD8000D6A0E6A0F6A0CC00FF00E6A0D6A0C6A74
:100CE8000C5012120D5013120E5014120F501512F0
:100CF8001050D8B482EF06F084EF06F08CEF06F0BF
:100D08000BBE8BEF06F089EF06F08CEF06F0158E20
:100D180012C008F013C009F014C00AF015C00BF097
:100D28001200DCEC0EF0010E2BEC0CF03E6E3E04D3
:100D3800D8A4A1EF06F0A3EF06F0ABEF06F0000E83
:100D48004F6E070E4E6E5BEC0BF038EF07F0070E98
:100D58004E184F10D8A4B3EF06F0B5EF06F0CDEF5C
:100D680006F0020E3E18D8B4BCEF06F0BEEF06F04F
:100D7800C7EF06F0030E3E18D8A4C5EF06F0C7EF7C
:100D880006F0CDEF06F0000E4F6E020E4E6EA7EF86
:100D980006F0020E3E18D8A4D4EF06F0D6EF06F0FF
:100DA800E5EF06F04F5007E1060E4E5CD8B0DFEFD6
:100DB80006F0E1EF06F0E5EF06F04E4A4F2AA7EFFE
:100DC80006F0030E3E18D8A4ECEF06F0EEEF06F09E
:100DD800FEEF06F04F5009E1020E4E5CD8A0F7EF87
:100DE80006F0F9EF06F0FEEF06F04E06D8A04F0623
:100DF800A7EF06F00B0E3E18D8A405EF07F007EF93
:100E080007F014EF07F0110E5E18D8A40EEF07F0E4
:100E180010EF07F014EF07F0120E5E6E38EF07F0D0
:100E280038EF07F0E1EC09F097EF06F0D6EC01F0A7
:100E380097EF06F072EC03F097EF06F036EC08F047
:100E480097EF06F0A6EC04F0130E5E6E97EF06F02F
:100E5800C0EC0EF097EF06F0CEEC0EF097EF06F030
:100E6800B2EC0EF097EF06F05E503C6E3D6A3D50D6
:100E7800000AD8B442EF07F097EF06F03C50000A9A
:100E8800D8B422EF07F0010AD8B426EF07F0030A16
:100E9800D8B42CEF07F0010AD8B430EF07F00B0AEA
:100EA800D8B434EF07F0190AD8B416EF07F0030ADC
:100EB800D8B41AEF07F0010AD8B41EEF07F097EF7D
:100EC80006F007EF00F01D6E20EE72F010EE0CF049
:100ED800100EDBCFE3FFE806FCE20A50300F0C6E81
:100EE8000AC002F0036A000E056E0A0E046EB2EC28
:100EF8000AF002501D241D6E1D50050DF35014EC10
:100F08000FF00B6E0B50026E036A000E056E0A0E90
:100F1800046E50EC0AF00250300F0E6E1D50050D95
:100F2800F35014EC0FF00B6E0B50026E036A000EB8
:100F3800056E0A0E046EB2EC0AF00250300F0F6E06
:100F48001D50050DF32814EC0FF00B6E0B50026EBC
:100F5800036A000E056E0A0E046E50EC0AF0025089
:100F6800300F116E1D50050DF32814EC0FF00B6EA9
:100F78000B50026E036A000E056E0A0E046EB2EC88
:100F88000AF00250300F126E1D50050DF350020F7B
:100F980014EC0FF00B6E0B50026E036A000E056E18
:100FA8000A0E046E50EC0AF00250300F146E1D50F9
:100FB800050DF350020F14EC0FF00B6E0B50026E80
:100FC800036A000E056E0A0E046E50EC0AF0025019
:100FD800300F156E1D50050DF350030F14EC0FF074
:100FE800030DF350830FD96EDA6ADF50176E1D5068
:100FF800050DF350030F14EC0FF0030DF350840F9D
:10100800D96EDA6ADF50186E1D50050DF350040FC3
:1010180014EC0FF00B6E0B50026E036A000E056E97
:101028000A0E046E50EC0AF00250300F1A6E1D5072
:10103800050DF350040F14EC0FF00B6E0B50026EFD
:10104800036A000E056E0A0E046EB2EC0AF0025036
:10105800300F1B6E0C0E036E046AC00E056EA0ECFA
:101068000CF01200F30E036E2F0E046E800E056E48
:10107800A0EC0CF05850D8A444EF08F046EF08F064
:101088004AEF08F04C04556E4CEF08F0090E556E07
:101098005850D8B452EF08F054EF08F058EF08F061
:1010A8004CC054F05AEF08F0000E546E000E2BECB2
:1010B8000CF01E6E53C00AF0545067EC07F00C0E8B
:1010C8001E18D8A46AEF08F06CEF08F070EF08F06B
:1010D800444A452AD9EF08F00B0E1E18D8A477EF1A
:1010E80008F079EF08F094EF08F0424A432A840E9A
:1010F800421807E1030E4318D8A485EF08F087EFDC
:1011080008F0D9EF08F0000E436E000E426E000E94
:10111800016E010E19EC0EF0130E5E6ED9EF08F099
:1011280044504510D8B49BEF08F09DEF08F0B4EF99
:1011380008F0D00E445C070E4558D8B0A6EF08F06A
:10114800A8EF08F0B4EF08F05550535CD8B0AFEFF3
:1011580008F0B1EF08F0D5EF08F0532AD5EF08F002
:1011680042504310D8B4BBEF08F0BDEF08F0D5EFFC
:1011780008F0840E425C030E4358D8B0C6EF08F05E
:10118800C8EF08F0D5EF08F0000E436E000E426E6F
:101198005350D8B4D2EF08F0D4EF08F0D5EF08F0E8
:1011A8005306000E456E000E446E1200819A818C23
:1011B800818E81B2E2EF08F0E4EF08F0E7EF08F083
:1011C800010E5DEF09F081B4ECEF08F0EEEF08F0E6
:1011D800F1EF08F0040E5DEF09F081B6F6EF08F0C4
:1011E800F8EF08F0FBEF08F0070E5DEF09F081B8A3
:1011F80000EF09F002EF09F005EF09F00A0E5DEFC4
:1012080009F0818A819C818E81B20DEF09F00FEF80
:1012180009F012EF09F0020E5DEF09F081B417EF43
:1012280009F019EF09F01CEF09F0050E5DEF09F060
:1012380081B621EF09F023EF09F026EF09F0080E37
:101248005DEF09F081B82BEF09F02DEF09F030EFD1
:1012580009F00B0E5DEF09F0818A818C819E819ED9
:1012680081B239EF09F03BEF09F03EEF09F0030EC8
:101278005DEF09F081B443EF09F045EF09F048EF5D
:1012880009F0060E5DEF09F081B64DEF09F04FEF5A
:1012980009F052EF09F0090E5DEF09F081B857EF38
:1012A80009F059EF09F05CEF09F00C0E5DEF09F059
:1012B800FF0E120031343234386E3850D8A467EF3C
:1012C80009F069EF09F073EF09F0000E2F6E000EB8
:1012D800306E000E316E000E326EE0EF09F02FC056
:1012E80033F030C034F031C035F032C036F0200E63
:1012F80083EF09F0D8903632353234323332E82E63
:101308007EEF09F03350376E318EFF0E2F16FF0E29
:101318003016FF0E3116000E3216960E385E38BEA5
:101328009AEF09F098EF09F0B0EF09F03850800A09
:10133800970FD8B0A2EF09F0A4EF09F0A6EF09F0D3
:1013480069EF09F0D8903232313230322F32383EDC
:10135800A6EF09F0C8EF09F01F0E3864B6EF09F0E0
:10136800B8EF09F0C0EF09F069EF09F0D8902F360F
:1013780030363136323638063850D8A4C6EF09F040
:10138800C8EF09F0BAEF09F03750D8B4CEEF09F03A
:10139800D0EF09F0D8EF09F0321E311E301E2F6C45
:1013A800000E3022312232222FC02FF030C030F010
:1013B80031C031F032C032F01200A40E036E2F0E8D
:1013C800046E800E056EA0EC0CF0AE0E1A6E470E81
:1013D8001B6E250E1C6E410E1D6E040EB5EC0DF035
:1013E80001C008F002C009F00A6A0B6A000EBBECE3
:1013F80005F008C016F009C017F00AC018F00BC0B5
:1014080019F009EC00F016C02FF017C030F018C022
:1014180031F019C032F05EEC09F02FC03AF030C05C
:101428003BF03AC008F03BC009F0000E0B6E0A0E04
:101438000A6ED6EC0CF00850300F0001B36F3AC0BA
:1014480001F03BC002F0000E046E0A0E036E66EC5B
:101458000CF00150300F0001B26F000EB46FE9ECD0
:101468000BF09F0E036E046AC00E056EA0EC0CF024
:101478004E50030DF350830F396E39C003F0046AE0
:10148800C90E056EA0EC0CF0B20E036E046ACE0E07
:10149800056EA0EC0CF01200000E076E05BE59EFA9
:1014A8000AF057EF0AF05FEF0AF0046C051ED8B097
:1014B800052A010E076E03BE66EF0AF064EF0AF014
:1014C8006CEF0AF0026C031ED8B0032A010E071A4B
:1014D800000E096E000E086E04500510D8B477EFA0
:1014E8000AF079EF0AF0A1EF0AF0010E066E81EF1B
:1014F8000AF0D89004360536062A05AE86EF0AF0BB
:1015080088EF0AF07DEF0AF0D890083609360450C3
:10151800025C05500358D8A094EF0AF096EF0AF041
:101528009BEF0AF00450025E0550035A0880D890D9
:1015380005320432062E88EF0AF00750D8B4A7EF18
:101548000AF0A9EF0AF0ADEF0AF0086C091ED8B04E
:10155800092A08C002F009C003F01200000E076E45
:1015680003BEBBEF0AF0B9EF0AF0C1EF0AF0026C54
:10157800031ED8B0032A010E076E05BEC8EF0AF095
:10158800C6EF0AF0CCEF0AF0046C051ED8B0052AA5
:1015980004500510D8B4D3EF0AF0D5EF0AF0F9EFEC
:1015A8000AF0010E066EDDEF0AF0D8900436053613
:1015B800062A05AEE2EF0AF0E4EF0AF0D9EF0AF0E6
:1015C8000450025C05500358D8A0EDEF0AF0EFEF85
:1015D8000AF0F3EF0AF00450025E0550035AD8905F
:1015E80005320432062EE4EF0AF00750D8B4FFEFB4
:1015F8000AF001EF0BF005EF0BF0026C031ED8B0F8
:10160800032A02C002F003C003F01200136E9BC04D
:101618000FF09CC010F09DC011F09EC012F00001A8
:101628009B2B000E9C239D239E231250111009E131
:10163800E90E0F5C030E1058D8B025EF0BF027EF1A
:101648000BF02FEF0BF01350C60F0D6E5F0EE9EC89
:101658000EF05AEF0BF09BC00FF09CC010F09DC02D
:1016680011F09EC012F09B2B000E9C239D239E23FD
:101678001250111009E1D10E0F5C070E1058D8B0A6
:1016880048EF0BF04AEF0BF052EF0BF01350C60F78
:101698000D6E200EE9EC0EF05AEF0BF0000E9B6F6A
:1016A800000E9C6F000E9D6F000E9E6F12000001D1
:1016B8009F510A0DF350A025F00F036EA2510A0D99
:1016C800F350A325F00F046EA5510A0DF350A6257B
:1016D800F00F056E4EC006F0B2510A0DF350B32557
:1016E800F00F076E000E096E000E086E0850030F0B
:1016F800D96EDA6ADF50016E4C50050DF35008249C
:1017080051EC0EF0084A092A095009E1050E085C57
:10171800D8A091EF0BF093EF0BF07AEF0BF04C4A57
:101728004D2A0A0E4C184D10D8A49DEF0BF09FEFD0
:101738000BF0A5EF0BF0010E586E000E4D6E000E6B
:101748004C6E1200CC0EF66E1A0EF76E000EF86E86
:1017580001EE00F010EE55F00900F5CFEEFFE55070
:10176800E150FAE1F60EF66E1B0EF76E000EF86EFB
:1017780000EE60F010EE3BF00900F5CFEEFFE5500B
:10178800E150FAE18A0EF66E1E0EF76E000EF86E44
:1017980000EE5AF010EE05F00900F5CFEEFFE55027
:1017A800E150FAE100EE9BF01A0EEE6AE806FDE160
:1017B80000EE3FF01B0EEE6AE806FDE15F905F92D7
:1017C800000EF86E000195EF06F0020E7EEC0EF0AA
:1017D8003F6E010E7EEC0EF0406E000E7EEC0EF0B9
:1017E800416E3FACFAEF0BF0FCEF0BF008EF0CF09A
:1017F8003F380F0B010B300F00019F6F3F500F0B4D
:10180800300FA06F12EF0CF03F380F0B030B300FA7
:1018180000019F6F3F500F0B300FA06F3A0EA16F62
:1018280040380F0B0F0B300FA26F40500F0B300FCB
:10183800A36F3A0EA46F41380F0B0F0B300FA56F33
:1018480041500F0B300FA66F000EA76F1200016EEC
:101858000104D8A432EF0CF034EF0CF058EF0CF080
:10186800DAEC08F0596E5928D8B43DEF0CF03FEF88
:101878000CF04CEF0CF05D50D8B445EF0CF047EF8E
:101888000CF04CEF0CF0000E5D6E595065EF0CF04B
:101898005928D8A452EF0CF054EF0CF064EF0CF078
:1018A800010E5D6E64EF0CF00150D8A45EEF0CF0F1
:1018B80060EF0CF064EF0CF0DAEC08F065EF0CF078
:1018C800FF0E1200000E066E000E056E0350041087
:1018D800D8B471EF0CF073EF0CF09BEF0CF0010E25
:1018E800076E7BEF0CF0D89003360436072A04AE57
:1018F80080EF0CF082EF0CF077EF0CF0D890053603
:1019080006360350015C04500258D8A08EEF0CF044
:1019180090EF0CF095EF0CF00350015E0450025A62
:101928000580D89004320332072E82EF0CF005C0F0
:1019380001F006C002F01200000E016E055019EC0D
:101948000EF0BDEF0CF0010E016E03C0F6FF04C0EF
:10195800F7FFF86A050EF76403D00800F55005D0C4
:10196800F6CFE9FFF7CFEAFFEF5019EC0EF0034A84
:10197800042A03C0F6FF04C0F7FFF86A050EF764EF
:1019880003D00800F55005D0F6CFE9FFF7CFEAFFFE
:10199800EF500009D8A4D3EF0CF0D5EF0CF0A7EF67
:1019A8000CF012000A500B10D8B4DDEF0CF0DFEF8A
:1019B8000CF003EF0DF0010E0C6EE7EF0CF0D89071
:1019C8000A360B360C2A0BAEECEF0CF0EEEF0CF0EF
:1019D800E3EF0CF00A50085C0B500958D8A0F7EF59
:1019E8000CF0F9EF0CF0FDEF0CF00A50085E0B500C
:1019F800095AD8900B320A320C2EEEEF0CF008C0C0
:101A080008F009C009F012000CEF0DF0012A022AB3
:101A18000250D96EDA6A0150E16EE26ADE50E618C9
:101A2800D8A419EF0DF01BEF0DF026EF0DF00150C3
:101A3800D96EDA6ADF50D8A424EF0DF026EF0DF046
:101A48000AEF0DF00150D96EDA6ADF50036E0250CA
:101A5800D96EDA6ADF50046E0450035C016E026AC4
:101A6800D8A0020612004DEF0DF002C0F6FF03C029
:101A7800F7FFF86A050EF76403D00800F55005D0A3
:101A8800F6CFE9FFF7CFEAFFEF5000EC0FF0024A7C
:101A9800032A02C0F6FF03C0F7FFF86A050EF764D1
:101AA80003D00800F55005D0F6CFE9FFF7CFEAFFDD
:101AB800EF500009D8A463EF0DF065EF0DF039EF92
:101AC8000DF0120056696577204C6F6720202020A2
:101AD8002020200000446F776E6C6F6164204C6F8B
:101AE800672020200000436C656172204C6F6720DE
:101AF800202020202000004368616E676520506127
:101B08007373776F726400005365742054696D6550
:091B1800202020202020202020A4
:101B2200000E7EEC0EF0046E04508009026E000E70
:101B3200A3EC0EF0020E7EEC0EF0046E045040098F
:101B4200026E020EA3EC0EF0930E026E070EA3ECD1
:101B52000EF0000E7EEC0EF0046E04507F0B026E4F
:101B6200000EA3EC0EF01200076E07C003F0D8902F
:101B72000336D8900336C250C30B0310C26EC28222
:101B8200C2B2C6EF0DF0C8EF0DF0C1EF0DF0C350B9
:101B9200C4CF03F0046A03C004F0036A0310056EA5
:101BA2000450066E05C001F006C002F012000600E5
:101BB200F2A4DEEF0DF0E0EF0DF0F9EF0DF0080EFC
:101BC200D624D66E000ED720D76E4A4A4B2A210E53
:101BD2004A1807E14E0E4B18D8A4F2EF0DF0F4EFBD
:101BE2000DF0F8EF0DF0000E4B6E000E4A6EF294FF
:101BF2005F92110020202020203A20203A2020202D
:101C0200202020202000202020203A20203A2020BE
:101C1200202020202020004F4E00475200474E0037
:0F1C22004731004732004733004734002D43005D
:101C3200026E01B01FEF0EF022EF0EF0828223EF50
:101C42000EF0829202C083FF82848294958E8280FB
:101C520082928284829483BE31EF0EF033EF0EF0D3
:101C62002AEF0EF08290959E1200000E956E94500F
:101C7200F80B946E8290000E016E020E19EC0EF0BB
:101C8200000E016E380E19EC0EF0000E016E0C0EF5
:101C920019EC0EF0000E016E010E19EC0EF012009E
:101CA200026E02C0A9FF01C0A8FFA69EA69CA68440
:101CB200F29E550EA76EAA0EA76EA682F28EA1A85C
:101CC20065EF0EF067EF0EF060EF0EF0A1981200D4
:101CD200948E949CAC9CAC8AAC98AC96AC84AB8E43
:101CE200AB9CAB88B89EB896B892B890810EAF6E96
:101CF2009D889E989D8A9E9A1200026E36EC0FF085
:101D0200D00E26EC0FF0025026EC0FF03AEC0FF05A
:101D1200D10E26EC0FF02CEC0FF0036E32EC0FF02C
:101D220003501200C08EC09AC088C096C090C08274
:101D3200C094C292C19AC198000EC46E000EC36EC6
:101D4200C2801200036E36EC0FF0D00E26EC0FF0BC
:101D5200035026EC0FF0025026EC0FF032EC0FF09D
:101D62001200000E016E010E19EC0EF0E10E036E70
:101D72002F0E046EC30E056EA0EC0CF01200000EC6
:101D8200016E010E19EC0EF0F90E036E2F0E046EA9
:101D9200C30E056EA0EC0CF01200000E016E010ED7
:101DA20019EC0EF0D40E036E2F0E046EC30E056EE8
:101DB200A0EC0CF0120036EC0EF093EC0EF00BECF3
:101DC2000FF0F5EC0EF091EC0DF069EC0EF0120054
:101DD2000E6E000E016E0D5019EC0EF0010E016E2A
:101DE2000E5019EC0EF0120094869488280EC66EDE
:101DF200310EC86EC79CC78E9E96A1961200016EC8
:101E02009EA806EF0FF008EF0FF001EF0FF001C0F0
:101E1200ADFF12000F0EC16E1E0E936EF19E815029
:101E2200E009816E1200016E01C0A9FFA694A69E70
:101E3200A69CA680A85012009EA622EF0FF024EFC7
:101E42000FF01DEF0FF09E961200016E01C0C9FF48
:101E52001DEC0FF012003EEC0FF042EC0FF0C950F7
:101E62001200C5841DEC0FF01200C5801DEC0FF0AE
:101E72001200C5821DEC0FF01200C5861DEC0FF09A
:0D1E82001200C58AC58812000A0001011176
:102F4A0000536C202054696D6520202045562020AE
:102F5A0053500A0D002020205355434345535346EE
:102F6A00554C4C202020002057524F4E47205041AC
:102F7A005353574F5244200020454E544552205037
:102F8A00415353574F5244200050415353574F52C5
:102F9A004420435241434B45440054494D45202067
:102FAA002020204556202020535000594F552041BB
:102FBA00524520424C4F434B4544002041747465AE
:102FCA006D707473204C656674006368616E676522
:102FDA00207073777264007365742074696D65007C
:102FEA00536563204C656674004C4F473A2D006365
:062FFA006C65617200002D
:020000040020DA
:08000000FFFFFFFFFFFFFFFF00
:020000040030CA
:0E000000FF071F1FFF8285FF0FC00FE00F409C
:00000001FF
